:020000040800F2
:1000000030FB0120E91B0008B9040008BB0400080C
:10001000BF040008C3040008C70400080000000073
:10002000000000000000000000000000FB1B0008B2
:10003000CB04000800000000558101089955000814
:10004000031C0008031C0008031C0008031C000814
:10005000031C0008031C0008031C0008031C000804
:10006000031C0008031C0008031C0008031C0008F4
:10007000031C0008031C0008031C0008031C0008E4
:10008000031C0008031C0008031C0008031C0008D4
:10009000031C0008031C0008031C0008031C0008C4
:1000A000031C0008031C0008031C0008031C0008B4
:1000B00021080008BB0A000895640008031C00081A
:1000C000031C0008031C0008031C0008031C000894
:1000D000031C0008DF570008C15C000865580008D1
:1000E000031C0008031C0008031C0008031C000874
:1000F000031C0008031C0008031C0008031C000864
:10010000031C0008031C000873090008031C0008F6
:10011000031C0008031C0008031C0008EB0900086E
:10012000031C0008031C0008031C0008031C000833
:10013000031C0008C50C0008031C0008031C000871
:10014000031C0008031C0008031C0008031C000813
:10015000031C0008031C0008031C0008295A00089F
:10016000031C0008031C0008031C0008031C0008F3
:10017000031C0008031C0008031C0008031C0008E3
:10018000031C0008031C000800F002F800F07EF8D1
:100190000AA090E8000C82448344AAF10107DA45E2
:1001A00001D100F073F8AFF2090EBAE80F0013F0B6
:1001B000010F18BFFB1A43F00103184704DB0100CD
:1001C00024DB01000A444FF0000C10F8013B13F04F
:1001D000070408BF10F8014B1D1108BF10F8015BA0
:1001E000641E05D010F8016B641E01F8016BF9D193
:1001F00013F0080F1EBF10F8014BAD1C0C1B09D1EA
:100200006D1E58BF01F801CBFAD505E014F8016B5B
:1002100001F8016B6D1EF9D59142D6D370470000ED
:100220000023002400250026103A28BF78C1FBD8FF
:10023000520728BF30C148BF0B60704766291DF0C8
:10024000D280642919F0F083752919F0ED8378299B
:1002500019F0268463291AF0088173291AF00D8198
:10026000002070471FB51DF0B4F819F061FE0400BE
:10027000002000211CF03AFA401C606000200021A0
:100280001CF04AFAE0601FBD10B510BD1AF00CFA60
:100290001146FFF7E7FF00F057F81AF02AFA03B407
:1002A000FFF7F2FF03BC05F0FDF90000002413E0A6
:1002B00000F0D5FAE0B219F0D9F9322C08DD454842
:1002C000006808B9012000E00020424908600024CD
:1002D000641C052005F0BDF9EAE770B5044600BFCF
:1002E00015F060FA17F00EFF054600F0ACFF10B1F4
:1002F00039A019F029FB19F041FA3EA019F024FBAE
:1003000001F02BFA10B146A019F01EFB06F0B6FE64
:1003100018B14AA019F018FB08E050A019F014FB1E
:1003200007F08AF810B156A019F00EFB07235D4ABA
:100330000021AFF2870016F099FEFF2017F016F9A2
:10034000284617F0E3FE70BD08B5A82005F030F987
:100350004FF4A06001F068FC4FF4E13005F0AFF914
:100360004FF4E13005F06FFB4FF4165005F0B3FA8F
:100370004D4841685420884700F0B0F953214B485C
:1003800000F0EEF94A49080602F01BFC00200623A3
:100390001A460521009000F066FF18F08EFE18F056
:1003A0008CFE00F07DFD002017F027FF012017F0E4
:1003B00024FF022017F021FF15F0B6F80B233D4A69
:1003C0000021AFF2E90016F051FE15F0D3F900203C
:1003D00008BD0000A48242426D61696E2E63202038
:1003E00043616E20696E6974206661696C21212108
:1003F000210D0A006D61696E2E632020496E6974BB
:10040000206472697665722C576169742061206D71
:100410006F6D656E742E2E2E2E2E2E0D0A0000008E
:100420006D61696E2E6320206D707520696E697430
:10043000206661696C212121210D0A006D61696EC0
:100440002E6320204C77697020696E697420666184
:10045000696C212121210D0A000000006D61696E87
:100460002E6320207463705F636C69656E7420690D
:100470006E6974206661696C212121210D0A0000DA
:100480006D61696E2E6320207463705F7365727690
:10049000657220696E6974206661696C2121212171
:1004A0000D0A000050060020B40000203F420F005B
:1004B000400D0300500A0020704700BFFEE700BF58
:1004C000FEE700BFFEE700BFFEE770470CB5002067
:1004D000019000907648006840F4803074490860CC
:1004E00000BF7348006800F4003000900198401C81
:1004F0000190009818B90198B0F5A04FF1D16C485F
:10050000006800F4003010B10120009001E00020EC
:1005100000900098012846D165484030006840F0BE
:1005200080506349403108606248006840F44040B0
:10053000604908605E48083000685D49083108601D
:100540000846006840F4004008600846006840F42F
:10055000A05008605848091F0860081F006840F054
:100560008070091F086000BF5148006800F00070EB
:100570000028F9D040F20570504908604C48083016
:10058000006820F003004A49083108600846006806
:1005900040F00200086000BF45480830006800F0E5
:1005A0000C000828F8D10CBD10B54548006840F48F
:1005B0007000434908603E48006840F001003C4933
:1005C000086000203A4908310860394800683D4910
:1005D0000840374908603C48091D0860081F00684A
:1005E00020F48020091F0860002031490C31086088
:1005F000FFF76CFF4FF0006031498039086010BD93
:1006000070B500200022022300240221284D083565
:100610002D6805F00C0020B1042806D0082834D13C
:1006200007E02A4D2A4E356033E02A4D284E3560CA
:100630002FE01F4D2D1D2D68C5F380541C4D2D1D21
:100640002D6805F03F0154B1224DB5FBF1F5184E70
:10065000361D3668C6F3881605FB06F209E01B4D09
:10066000B5FBF1F5124E361D3668C6F3881605FB4C
:1006700006F20F4D2D1D2D68C5F301456D1C6B0055
:10068000B2FBF3F5124E356003E0104D104E3560AD
:1006900000BF00BF064D08352D68C5F303150E4E8B
:1006A000705D0B4D2D68C540094E356070BD000072
:1006B000003802400070004008544007003C0240EF
:1006C00088ED00E0FFFFF6FE103000240024F40067
:1006D0000000002000127A00040000201CB5012157
:1006E000202001F035FE4FF4C060009001208DF80D
:1006F000040000208DF806008DF8070003208DF817
:1007000005006946144801F085FB4FF4C0611248AA
:1007100001F0FCFB1CBD60B911B1012908D103E057
:1007200001220E4B1A6003E000220C4B1A6000BF3E
:1007300010E001280ED111B101290AD104E00122F3
:10074000064B1B1D1A6004E00022044B1B1D1A609F
:1007500000BF00BF7047000000140240A482424264
:1007600030B58BB004460D460121084601F0F0FD7E
:100770000121084601F035FE01220021D44801F094
:10078000D4FB0120059002208DF8180003208DF87D
:10079000190000208DF81A0001208DF81B0005A912
:1007A000CB4801F037FBADF820500020ADF8220017
:1007B0000994ADF8280008A94FF0804002F013F822
:1007C0006020ADF800000120ADF802000020ADF877
:1007D0000C0069464FF0804002F09AF80821C806E4
:1007E00002F023FA0121880702F068F8012211467D
:1007F000900702F099FC0121880702F07DF81C2087
:100800008DF81C0001208DF81D0003208DF81E00BE
:1008100001208DF81F0007A801F00BFA0BB030BDC6
:1008200010B50121880702F096FC012812D1C821D9
:10083000A84819F0EFFAA848006808B9012000E0BC
:100840000020A549086017F00AF8A44908600120B3
:10085000A34908700121880702F08EFC10BD2DE924
:10086000FC4100279E48007800287DD09B48006806
:100870004FF47A71B0FBF1F085B298480068B0FB94
:10088000F1F201FB12064FF4616095FBF0F095491F
:10089000087009E04FF4A340281A85B24FF4616054
:1008A00095FBF0F08F4908708E4800781828F1DA2F
:1008B0004FF4616095FBF0F100FB11503C2190FB7F
:1008C000F1F0884948704FF4616095FBF0F100FB4E
:1008D00011503C2190FBF1F201FB1200814988701C
:1008E0000A2096FBF0F0C8700846C0788978CDE9F8
:1008F00000107C48437802787B49764819F030F83C
:10090000744819F0E9F979490880012404E0714834
:10091000005D4740601CC4B274480088401EA0427D
:10092000F5DC6C49714A128888183A4670A119F0B2
:1009300017F8684819F0D0F96C49088000240DE0D8
:1009400000BF40216C4802F0BDFE0028F9D061488C
:10095000015D694802F006FE601CC4B2634800886D
:100960008442EDDB002000E001E05D490870BDE855
:10097000FC8110B50121614802F0EDFB68B16048CF
:10098000008840F400405E49088001215B4802F085
:10099000F3FB0021594801F0AFFF10BD7FB50546BC
:1009A0000C460121082001F01CFD0195ADF8004026
:1009B0000020ADF80800ADF8020069464F4801F08C
:1009C00012FF012211464D4802F0AEFB32208DF895
:1009D0000C0000208DF80D0001208DF80E008DF820
:1009E0000F0003A801F025F97FBD10B5012145488E
:1009F00002F0B1FB68B14448008840F4004042492D
:100A0000088001213F4802F0B7FB00213D4801F07A
:100A100073FF10BD7FB505460C460121202001F073
:100A2000E0FC0195ADF800400020ADF80800ADF8FD
:100A300002006946334801F0D6FE012211463148D2
:100A400002F072FB37208DF80C0000208DF80D00AD
:100A500001208DF80E008DF80F0003A801F0E9F8D1
:100A60007FBD7FB504460D460121022001F0B9FC8F
:100A7000ADF804500020ADF806000294ADF80C006B
:100A800001A9224801F0AFFE012211461F4802F0E1
:100A90004BFB01211D4801F02FFF1D208DF80000A8
:100AA00001208DF8010003208DF8020001208DF84F
:100AB0000300684601F0BDF87FBD10B50121134861
:100AC00002F049FB0121114802F056FB10BD000065
:100AD00000000240540A0020A88242421400002074
:100AE000180000201900002094D901081E000020E1
:100AF000253032580D0A000000480040000C00402C
:100B000064000020001400405A000020000400404F
:100B100010B5B0B001214FF0606001F019FC02F097
:100B20003FFE03F0BAFB00BF03F0BEFB0128FBD081
:100B300001A802F040FE01200190002008904FF42F
:100B400000700B9000200C900F9012901490159054
:100B5000169021904FF000702290001124900020F8
:100B60002690279004202990C0052A9040122B90AF
:100B700080012C9040122D9040002F90002101A860
:100B800002F0D3FEC4B2012C03D10121B64803F018
:100B9000A2FB204630B010BD08B53D208DF8000006
:100BA00000208DF801008DF8020001208DF803006F
:100BB000684601F03EF808BD1CB5002401214D2017
:100BC00001F0C6FB0121880301F01CFC012001F0AB
:100BD00045FD8620009003208DF8050002208DF849
:100BE000040000208DF806008DF8070069469F4834
:100BF00001F010F90B2201219C4801F096F90B221B
:100C000002219A4801F091F90B220721974801F03F
:100C10008CF9322000906946954801F0FBF80B22D0
:100C20000121934801F081F90B220421904801F041
:100C30007CF90B2205218E4801F077F94FF4D04062
:100C4000009069468B4801F0E5F80B22114689486F
:100C500001F06BF90B220D21864801F066F90B2299
:100C60000E21844801F061F90820009003208DF8DE
:100C7000050001208DF8040000208DF806008DF895
:100C8000070069467C4801F0C5F800207B490860F0
:100C9000322004F0DEFC01207949C1F88C02FFF714
:100CA0007BFFFFF735FF04460CB901201CBD002077
:100CB000FCE710B51F21002002F006FEC0F38204FD
:100CC000204610BD10B501E006F05EF96D480068E1
:100CD00003F0BFFA0028F7D1402003F013FB4FF4D4
:100CE000803003F00FFB10BD1EB5002100220092E2
:100CF00001920292634A1268126802F0004282B1C5
:100D000000220092604A526902F0800222B18022E1
:100D10005D4B5A6100229A609DE81C0080E81C002F
:100D20001EBD584A1268126802F40042B2B9554A10
:100D30001268126802F4807282B1524A1268126814
:100D400002F4007252B14F4A12681268C2F30D42A7
:100D5000111F4C4A12689268019200E00021009134
:100D6000484A12680292474A1268D268454B1A6094
:100D70009DE81C0080E81C0000BFD1E70146434805
:100D80000068006800F0004008B100207047C1F31F
:100D90000C003E4A126850603C480068006840F011
:100DA00040503A4A1268106038480068006840F0C5
:100DB0000040364A126810603348406900F0040071
:100DC00020B10420304A5061002050602F48006854
:100DD000C0682E4A10600120D8E72C48006880685F
:100DE000704710B52A480168002017F0BCFA29485E
:100DF0000168002017F0B7FA27480168002017F0B3
:100E0000B2FA26480168002017F0ADFA10BD10B5FF
:100E1000A021002017F0B7FA1D490860A02100208A
:100E200017F0B1FA1B49086041F6C451002017F0D1
:100E3000AAFA1949086041F6C451002017F0A3FA34
:100E4000164908601248006840B11248006828B18D
:100E50001148006810B10846006818B9FFF7C1FFD3
:100E6000012010BD0020FCE740000100000002400E
:100E70000008024000180240000C02408C824142EF
:100E800000804142440000200090024040000020C9
:100E90002000002024000020280000202C0000203A
:100EA00000B599B00121782001F052FA4FF6337065
:100EB000179002208DF8600003208DF8610000205B
:100EC0008DF8620001208DF8630017A9994800F0A1
:100ED000A1FF4FF68370179017A9974800F09AFF6B
:100EE0004FF23F00179017A9944800F093FF40F28B
:100EF0003F40179017A9924800F08CFF0C22002168
:100F00008C4801F012F80C2201218A4801F00DF8FA
:100F10000C220421874801F008F80C22052185489D
:100F200001F003F80C220821824800F0FEFF0C2299
:100F30000921804800F0F9FF0C220A217D4800F0C9
:100F4000F4FF0C220B217B4800F0EFFF0C2211462E
:100F5000784800F0EAFF0C220D21764800F0E5FF0A
:100F60000C220E21734800F0E0FF0C220F21714883
:100F700000F0DBFF0C2200216F4800F0D6FF0C22AE
:100F800001216D4800F0D1FF0C2207216A4800F0D2
:100F9000CCFF0C220821684800F0C7FF0C22092171
:100FA000654800F0C2FF0C220A21634800F0BDFF33
:100FB0000C220B21604800F0B8FF0C2211465E485D
:100FC00000F0B3FF0C220D215B4800F0AEFF0C22B5
:100FD0000E21594800F0A9FF0C220F21564800F0BD
:100FE000A4FF0C220021554800F09FFF0C22012194
:100FF000524800F09AFF0C220221504800F095FF61
:101000000C2203214D4800F090FF0C2204214B4894
:1010100000F08BFF0C220521484800F086FF0C22CF
:101020001146464800F081FF0C220D21434800F094
:101030007CFF0C220E21414800F077FF0C220F218B
:101040003E4800F072FF0C2200213D4800F06DFF89
:101050000C2201213A4800F068FF0C220221384896
:1010600000F063FF0C220321354800F05EFF0C22E4
:101070000421334800F059FF0C220521304800F0CC
:1010800054FF0C220A212E4800F04FFF002001904F
:10109000029009200390002004900590069007908C
:1010A00004200890002009900A9010200B90002046
:1010B0000C900D900E900F9010904FF48050119066
:1010C000002012901390149001A81590169008A873
:1010D00003F093FA0121042003F01AFB19B000BDBC
:1010E00010B506E004784FF0D0435C54491C401C16
:1010F000521E002AF6D110BD06E04FF0D0435B5CD3
:1011000000F8013B491C521E002AF6D1704713B566
:1011100004460122214601A8FFF7E2FF1CBD18B5D5
:101120000446012221466846FFF7E6FF9DF80000CD
:1011300018BD0000000C02400010024000140240E4
:10114000001802407FB586B000249DF82460069800
:1011500000F5C060019000208DF80C008DF80D00A6
:101160008DF80E6000BF05E007A8015D0D38015540
:10117000601C84B2B442F7DB01A99B4803F098FEDF
:101180000546002401E0601C84B22946964803F01D
:1011900027FF18B940F6FF708442F4DB40F6FF7079
:1011A000844202DB01200AB070BD0020FBE770B56D
:1011B00086B005460E4600218B4803F0F1FF10B9BA
:1011C000002006B070BD01AA0021874803F065FF2A
:1011D000002404E00DF10F00005D2855641C9DF80B
:1011E0000E00A042F6D8019830609DF80E00E8E7A6
:1011F00088B027E001A902A8FFF7D9FF04462CB167
:10120000224602A9019817F0B7F906E0774800686E
:10121000406810B9022004F01CFA74480068406865
:1012200000280FDD714804A90268102018F02FFB78
:1012300004A80FC8FFF786FF6C48006841686CA0DF
:1012400018F082FBD6E770B516F05CFF0546082360
:101250006D4A00216D4815F009FF0446284616F036
:1012600055FF204670BD2DE9F0418AB004460D4679
:1012700016461F46DDF840800121084601F068F857
:101280000121480601F0ADF84FF4C050089002204B
:101290008DF8240000208DF8260003208DF825000D
:1012A00001208DF8270008A9594800F0B3FD092254
:1012B0000B21574800F039FE09220C21544800F058
:1012C00034FE00208DF81A008DF81B008DF81C00EC
:1012D00001208DF81D0000208DF81E008DF81F00E4
:1012E0008DF816808DF817408DF818608DF819501C
:1012F000ADF8147005A93C4803F061FC00208DF89E
:101300000E008DF80F0001208DF810000020ADF8C0
:101310000400ADF80600ADF80800ADF80A00ADF81D
:101320000C0001208DF8110001A803F0D2FC002070
:101330000AB0BDE8F081F0B585B007460D4600243F
:1013400012200090019000208DF808008DF809000F
:101350008DF80A5000BF05E0395D0DF10B00015515
:10136000601C84B2AC42F7DB69461F4803F0A0FD65
:101370000646002401E0601C84B231461A4803F09E
:101380002FFE18B940F6FF708442F4DB40F6FF7080
:10139000844202DB012005B0F0BD0020FBE730B540
:1013A00085B005460021104803F0FAFE10B9002070
:1013B00005B030BD6A4600210B4803F06EFE0024E4
:1013C00004E00DF10B00005D2855641C9DF80A0037
:1013D000A042F6D89DF80A202946009817F0CCF8CC
:1013E0009DF80A00E4E70000006400404C03002080
:1013F0006D61696E2E63207175657565436F756EDD
:10140000743D25640D0A00001C0D0020F111000838
:10141000000002402DE9F04106460F4614461D46E5
:1014200000F0D3FA002141EA4601C8B200F079FB8E
:1014300000F00CFB20B100F0EAFA0120BDE8F081D9
:10144000384600F06EFB00F001FB00F0BEFA01210F
:1014500001EB4601C8B200F064FB00F0F7FA0DE0C2
:10146000012C04D1002000F089FB287003E001204A
:1014700000F084FB2870601EC4B26D1C002CEFD1FC
:1014800000F0C5FA0020D9E72DE9FC4104460D46DD
:1014900016466B46062243216820FFF7BBFF07462E
:1014A000BFB99DF801009DF8001040EA012000B28C
:1014B00020809DF803009DF8021040EA012000B250
:1014C00028809DF805009DF8041040EA012000B234
:1014D00030803846BDE8FC812DE9FC4104460D46CC
:1014E00016466B4606223B216820FFF793FF07460E
:1014F000BFB99DF801009DF8001040EA012000B23C
:1015000020809DF803009DF8021040EA012000B2FF
:1015100028809DF805009DF8041040EA012000B2E3
:1015200030803846BDE8FC8110B52DED088B82B0C7
:1015300001AB022241216820FFF76CFF9DF80500F6
:101540009DF8041040EA012004B220461BF073FB12
:1015500041EC1B0B9FEDF70B53EC102B1BF0E4F948
:1015600041EC1A0B9FEDF50B53EC102B1BF028F9F7
:1015700041EC190B1BF0F2F808EE100A9FEDF10A8E
:1015800028EE000ABDEEC00A10EE100A00B202B04A
:10159000BDEC088B10BD19E0FFF7C6FFEA490882D1
:1015A00001F10802891D881EFFF796FFE64A0E32F8
:1015B000911E881EFFF768FF16F051F9E249086096
:1015C000052300221146104616F0CAF8E4E770B56C
:1015D00005460C4600F0F9F9D02000F0A2FA00F020
:1015E00035FA18B100F013FA012070BD284600F05A
:1015F00098FA00F02BFA204600F093FA00F026FA51
:1016000018B100F004FA0120EFE700F000FA002022
:10161000EBE770B504460025BC2C01DB012510E08A
:10162000622C01DB02250CE02A2C01DB032508E0FB
:10163000142C01DB042504E00A2C01DB052500E065
:10164000062529461A20FFF7C2FF70BD70B5044673
:10165000B4F57A7F01DD4FF47A74042C00DA0424A7
:101660004FF47A7090FBF4F0401EC5B22946192061
:10167000FFF7ADFF0546264604EBD671C1F34F00D8
:10168000FFF7C7FF70BD70B5044600F09EF9D0208B
:1016900000F047FA00F0DAF9204600F042FA00F0D4
:1016A000D5F900F092F9D12000F03BFA00F0CEF924
:1016B000002000F063FA054600F0A9F9284670BD45
:1016C00010B50446E006010E1C20FFF780FF10BD98
:1016D00010B50446E006010E1B20FFF778FF10BD91
:1016E00010B500F053F980216B20FFF770FF6420E4
:1016F00003F0AFFF00216B20FFF769FF0320FFF726
:10170000E7FF0020FFF7DCFFC820FFF79FFF002165
:101710003820FFF75CFF00216A20FFF758FF002107
:101720002320FFF754FF80213720FFF750FF75205B
:10173000FFF7A9FF0446682C0BD101216B20FFF7AE
:1017400046FF00216C20FFF742FFC820FFF77EFF15
:1017500001E0012010BD0020FCE770B5FFF7C0FFDD
:1017600008B1FF2070BD16F0CDFC05460D23774A69
:101770000021774815F07AFC0446284616F0C6FC8E
:101780002046EFE710B5044614226F49204618F0B2
:1017900007FB10BD2DE9F04105460E461746984659
:1017A00000F013F9002141EA4501C8B200F0B9F98F
:1017B00000F04CF920B100F02AF90120BDE8F081D9
:1017C000304600F0AEF900F041F900240CE018F8C2
:1017D000040000F0A6F900F039F918B100F017F98B
:1017E0000120EBE7601CC4B2BC42F0DB00F00FF953
:1017F0000020E3E710B5044600BF4021554801F042
:1018000061FF0028F9D02146524801F0ABFE10BD1F
:10181000F0B589B006460F4615461C2D01DD09B00E
:10182000F0BD002101AAE81C1154A1208DF804008C
:101830008DF805608DF80650002405E0395DE01C48
:1018400001AA1154601CC4B2AC42F7DB00240AE0C8
:1018500001A9E81C085C095D0844C1B201AAE81CA2
:101860001154601CC4B2E81C8442F1DB002405E082
:1018700001A9085DFFF7BEFF601CC4B2281D8442A9
:10188000F6DB00BFCBE72DE9F04F87B005460E46EB
:1018900017469846DDE911ABDDF84090A1208DF8A0
:1018A0000400B2208DF8050012208DF80600280EE5
:1018B0008DF80700280C8DF80800280A8DF809001B
:1018C000E8B28DF80A00300A8DF80B00F0B28DF8FE
:1018D0000C00380A8DF80D00F8B28DF80E004FEAB2
:1018E00018208DF80F0008F0FF008DF810004FEA67
:1018F00019208DF8110009F0FF008DF812004FEA51
:101900001A208DF813000AF0FF008DF814004FEA3A
:101910001B208DF815000BF0FF008DF816001398B2
:10192000000A8DF817001398C0B28DF81800032430
:101930001CE000000000000000407540A4703D0A5B
:10194000D74342400000C842200D0020340F002041
:1019500097150008004400409DF8190001A9095D91
:101960000844C0B28DF81900601CC4B2152CF3DB1A
:10197000002405E001A9085DFFF73CFF601CC4B22C
:10198000162CF7DB07B0BDE8F08F00001CB5012175
:10199000022000F0DDFC4FF44070009001208DF833
:1019A000040000208DF8060003208DF805000120BA
:1019B0008DF807006946894800F02CFA0120884913
:1019C00008608849C1F8A4021CBD10B583480068AE
:1019D00020F44020814908600846006840F48020D7
:1019E000086001207E49091D08607E49C1F8A002F7
:1019F000042003F003FE00207949091D086004203B
:101A000003F0FCFD00207749C1F8A00210BD10B51D
:101A10007248006820F44020704908600846006859
:101A200040F48020086000206D4908606D49C1F8CD
:101A3000A402042003F0E2FD01206949086069491D
:101A4000C1F8A402042003F0D9FD10BD10B5002494
:101A50006248006820F44020604908600846006839
:101A6000086001205E49091D086003F0C7FD0120E0
:101A70005C49C1F8A00203F0C1FD07E0601CC4B2DC
:101A8000FA2C03DDFFF7C3FF012010BD54487C385A
:101A900000680028F2D15249086000BFF5E710B590
:101AA00000204F4908604D48006820F440204B4911
:101AB00008600846006840F480200860002049491A
:101AC000C1F8A402022003F099FD012044490860F6
:101AD000022003F093FD00204249C1F8A00210BD8E
:101AE00010B500203E4908603C48006820F44020C2
:101AF0003A4908600846006840F4802008600120E8
:101B00003849C1F8A402022003F078FD01203449CD
:101B10000860022003F072FD00203249C1F8A002E3
:101B200010BD70B504462D48006820F440202B49B4
:101B300008600846006840F48020086000202849BA
:101B40000860002517E0E0092549091D08606006C6
:101B5000040E022003F052FD01202249C1F8A00228
:101B6000022003F04BFD00201D490860022003F015
:101B700045FD681CC5B2082DE5DB70BD70B5054696
:101B800000241648006820F44020144908600846E4
:101B900000680860002616E0002011490860022055
:101BA00003F02CFD01200F49C1F8A0026006040ECD
:101BB0000B487C38006808B1601CC4B2012003F0F7
:101BC0001DFD701CC6B2082EE6DB15B9FFF788FFB5
:101BD00001E0FFF764FF204670BD000000040240F2
:101BE000A08240420080404209488047094800479F
:101BF000FEE7FEE7FEE7FEE7FEE7FEE7FEE7FEE7BD
:101C0000FEE7FEE704480549054A064B7047000019
:101C1000A90500088901000830F5012030FB0120EA
:101C200030F7012030F7012032490143324A116078
:101C3000704770B5002100230F22C4781CB32E4CCE
:101C4000246804F4E064C4F5E064C4F30721C1F13E
:101C50000404E3B20A4144789C40E1B28478144021
:101C600021430C07210E254C05786155047804F0BA
:101C70001F050124AC4005786D11AD0005F1E0258C
:101C8000C5F8004109E0047804F01F050124AC40C8
:101C90001B4D0678761145F8264070BD194A0A405A
:101CA0000243154B1B1F1A60704739B1124A121DAF
:101CB00012680243104B1B1D1A6006E00E4A121DEB
:101CC000126882430C4B1B1D1A607047042808D110
:101CD0004FF0E021096941F004014FF0E022116169
:101CE00007E04FF0E021096921F004014FF0E02204
:101CF000116170470000FA050CED00E000E400E01F
:101D000080E100E080FFFF1F10B504469848844240
:101D100008D10121084600F086FB0021012000F0D7
:101D200082FB76E09348844208D10121022000F032
:101D30007AFB0021022000F076FB6AE08E488442A4
:101D400008D10121042000F06EFB0021042000F0E6
:101D50006AFB5EE08948844208D10121082000F036
:101D600062FB0021082000F05EFB52E084488442C0
:101D700008D10121102000F056FB0021102000F0B6
:101D800052FB46E07F48844208D10121202000F028
:101D90004AFB0021202000F046FB3AE07A488442CA
:101DA00008D10121402000F03EFB0021402000F03E
:101DB0003AFB2EE07548844208D10121802000F0D2
:101DC00032FB0021802000F02EFB22E0704884428C
:101DD00008D10121801500F026FB0021A01500F09C
:101DE00022FB16E06B48844208D10121401500F027
:101DF0001AFB0021601500F016FB0AE066488442D9
:101E000007D10121001500F00EFB0021201500F084
:101E10000AFB10BDF0B50A4600210023002400BFD4
:101E20003DE0012505FA01F3156805EA03049C422B
:101E300034D105684F000326BE40B54305601579CF
:101E40004E00B5400668354305601579012D02D076
:101E50001579022D16D185684F000326BE40B54383
:101E6000856055794E00B540866835438560456884
:101E700001268E40B5434560456896798E40B6B2DE
:101E800035434560C5684F000326BE40B543C56075
:101E9000D5794E00B540C6683543C560491C102948
:101EA000BFD3F0BD4FF6FF71016000210171417198
:101EB0008171C171704708B54FF480320092009A69
:101EC0000A430092009AC261C161009AC261C2696C
:101ED0000092C269009208BD0246002013690B40BF
:101EE0000BB1012000E0002070470146086980B274
:101EF00070470246002053690B400BB1012000E0FF
:101F0000002070470146486980B2704701837047DE
:101F1000418370470AB1018300E04183704741610A
:101F2000704742694A4042617047F0B5002300247F
:101F30004D07ED0E02FA05F3CE1000F1200555F81D
:101F400026504E07F70E0F26BE40B543CF1000F1C6
:101F5000200646F82750CE1000F1200555F82650EF
:101F600045EA0304CE1000F1200545F82640F0BDF7
:101F7000000002400004024000080240000C024041
:101F8000001002400014024000180240001C0240F1
:101F9000002002400024024000280240F948006866
:101FA00040F00100F74908600020F6490831086058
:101FB000F4480068F4490840F2490860F348091DF4
:101FC0000860F348EF4984310860F0481038091D73
:101FD0000860EC48006820F48020EA49086000208E
:101FE000E8490C310860E7498C31086070470021EE
:101FF000E44A921C117011460870704710B50146F2
:102000000022002300204A11012A02D1DD4C23685E
:1020100008E0022A03D1DB4C7034236802E0D94C7B
:102020007434236801F01F02012494401C400CB159
:10203000012000E0002010BD38B5002000900024F1
:10204000002500BF3120FFF7D9FF05460098401C4E
:1020500000900098B0F5A04F01D0002DF2D03120B3
:10206000FFF7CCFF08B1012400E00024204638BD72
:1020700001460020C34A106820F0F80040EAC10081
:1020800010607047C349086070470021BD4A703234
:1020900011701170012802D004280AD104E0012136
:1020A000B84A7032117005E00521B64A70321170DD
:1020B00000E000BF00BF7047B7490860704770B5C7
:1020C000049C41EA82150126C6EB530645EA064503
:1020D000054345EA0465AB4E361D356070BDAD491C
:1020E00008667047820142EA0172A64B84331A6087
:1020F0007047A8498866704710B5830143EA0163B9
:1021000043EA02739F4C8834236010BDA1490867DD
:102110007047A049C864704702460020994B0833B5
:10212000186820F0EC6042EA01031843954B08332D
:102130001860704702460020924B0833186820F060
:10214000784042EA010318438E4B08331860704709
:10215000014600208B4A0832106820F00300084333
:102160001060704787480830006800F00C00704726
:1021700001460020834A0832106820F0F00008432E
:1021800010607047014600207E4A0832106820F433
:10219000E05008431060704701460020794A083239
:1021A000106820F4604040EAC10010607047F0B54C
:1021B000002100220024022500260223714F083747
:1021C0003F6807F00C0121B1042905D0082937D157
:1021D00005E0724F076036E0714F076033E0694FEA
:1021E0003F1D3F68C7F38056664F3F1D3F6807F0AD
:1021F0003F036EB16A4FB7FBF3F7DFF888C10CF10C
:10220000040CDCF800C0CCF3881C07FB0CF40CE0D9
:10221000624FB7FBF3F7DFF86CC10CF1040CDCF88C
:1022200000C0CCF3881C07FB0CF4564F3F1D3F68E1
:10223000C7F301477F1C7D00B4FBF5F7076002E0A0
:10224000564F076000BF00BF4E4F08373F6807F08A
:10225000F0010909534F7A5C0768D7404760494F3E
:1022600008373F6807F4E051890A4E4F7A5C4768A7
:10227000D7408760434F08373F6807F46041490BF8
:10228000484F7A5C4768D740C760F0BD002100F432
:102290004072B2F5407F0AD13A4A0832116821F4FF
:1022A000F811414A02401143364A08321160354A5A
:1022B00070321268C0F30B031A43324B70331A604A
:1022C00070473549443908607047334940390860E0
:1022D000704736490860704701460020294A8C3211
:1022E000106820F01F004A1E1043264A8C321060EE
:1022F000704701460020234A8C32106820F4F850C1
:102300004A1E40EA02201F4A8C3210607047014684
:1023100000201C4A8C32106820F4401008431060E2
:10232000704701460020174A8C32106820F44000A4
:1023300008431060704701460020124A8C32106832
:1023400020F4403008431060704719490860704716
:1023500039B10C4A3032126802430A4B30331A60EA
:1023600006E0084A303212688243064B30331A6066
:102370007047F9B1034A343212680243014B3433D7
:102380001A601CE000380240FFFFF6EA103000241B
:102390000030002000004742800E47420024F40035
:1023A00000127A0030000020FFFCFF0F5C01474262
:1023B000E01147428F4A126882438E4B1A60704781
:1023C00039B18C4A121D126802438A4B1B1D1A60D8
:1023D00006E0884A121D12688243864B1B1D1A6054
:1023E000704739B1834A0C3212680243814B0C3377
:1023F0001A6006E07F4A0C32126882437D4B0C3330
:102400001A60704739B17B4A103212680243794B27
:1024100010331A6006E0774A103212688243754B17
:1024200010331A60704739B1724A243A1268024375
:10243000704B243B1A6006E06E4A243A12688243CD
:102440006C4B243B1A60704739B16A4A203A1268D3
:102450000243684B203B1A6006E0664A203A126845
:102460008243644B203B1A60704739B1614A1C3A81
:10247000126802435F4B1C3B1A6006E05D4A1C3A3F
:10248000126882435B4B1C3B1A60704739B1594A52
:10249000143A12680243574B143B1A6006E0554A3F
:1024A000143A12688243534B143B1A60704739B197
:1024B000504A103A126802434E4B103B1A6006E035
:1024C0004C4A103A126882434A4B103B1A607047DC
:1024D00039B1484A1C3212680243464B1C331A6019
:1024E00006E0444A1C3212688243424B1C331A6095
:1024F000704739B13F4A2032126802433D4B2033C6
:102500001A6006E03B4A203212688243394B20337E
:102510001A60704739B1374A243212680243354B8A
:1025200024331A6006E0334A243212688243314B66
:1025300024331A60704739B12E4A2C321268024394
:102540002C4B2C331A6006E02A4A2C321268824344
:10255000284B2C331A60704739B1264A3032126842
:102560000243244B30331A6006E0224A30321268AC
:102570008243204B30331A607047012808D11D492F
:102580003C31096841F008011A4A3C32116007E009
:1025900018493C31096821F00801164A3C321160A3
:1025A000704739B1134A273A12780243114B273B3F
:1025B0001A7006E00F4A273A127882430D4B273BE8
:1025C0001A7070470B484030006840F0807009492D
:1025D00040310860704701460020064A283A1268D8
:1025E0000A400AB1012000E0002070470149263965
:1025F000087070473438024010B501218803FFF796
:1026000056FF00214FF48040FFF751FF10BD1C49D9
:10261000086070471B490862704730B500228B077D
:102620001C0F0F2303FA04F2154B08338C1053F8D8
:1026300024309343124C08348D1044F8253023463F
:102640008C1053F824308C07240F00FA04F4234331
:102650000B4C08348D1044F8253030BD0949DC316D
:10266000086070470849086070470020044920311D
:10267000096801F4807109B1012000E00020704771
:1026800000380140000027420004274210B50446EC
:10269000FE48844208D101210846FFF708FF0021C7
:1026A0000120FFF704FF9DE0B4F1804F08D1012124
:1026B0000846FFF7EBFE00210120FFF7E7FE91E05F
:1026C000F348844208D101210220FFF7DFFE0021F8
:1026D0000220FFF7DBFE85E0EE48844208D10121AD
:1026E0000420FFF7D3FE00210420FFF7CFFE79E09E
:1026F000E948844208D101210820FFF7C7FE0021E4
:102700000820FFF7C3FE6DE0E448844208D10121B0
:102710001020FFF7BBFE00211020FFF7B7FE61E09D
:10272000DF48844208D101212020FFF7AFFE0021BD
:102730002020FFF7ABFE55E0DA48844208D10121A2
:102740000220FFF7B4FE00210220FFF7B0FE49E0AF
:10275000D548844209D101210804FFF7A8FE0021D1
:102760004FF48030FFF7A3FE3CE0D048844209D10B
:1027700001214804FFF79BFE00214FF40030FFF7D2
:1027800096FE2FE0CA48844209D101218804FFF750
:102790008EFE00214FF48020FFF789FE22E0C5481D
:1027A000844208D101214020FFF770FE0021402023
:1027B000FFF76CFE16E0C048844208D1012180205A
:1027C000FFF764FE00218020FFF760FE0AE0BB48AF
:1027D000844207D101218015FFF758FE0021A01582
:1027E000FFF754FE10BD00220288A84B98420ED07D
:1027F000AC4B98420BD0B0F1804F08D0A44B98421C
:1028000005D0A44B984202D0A34B984204D14FF676
:102810008F731A404B881A43A04B984207D0A04BA5
:10282000984204D04FF6FF431A400B891A430280A6
:102830004B68C3620B880385944B984202D0994B36
:10284000984201D18B7A03860123838270474FF02F
:10285000FF31416000210180018141808172704718
:102860000185828270470A46002101884FF68F73E6
:10287000194011430180704741627047C16270473F
:102880000146486A70470146088D704721B10288A9
:1028900042F00202028004E002884FF6FD731A4003
:1028A0000280704721B1028842F00402028004E0F5
:1028B00002884FF6FB731A400280704721B10288EC
:1028C00042F08002028004E002884FF67F731A40D3
:1028D0000280704702884FF6F7731A400280028820
:1028E0000A430280704702884FF6FF431A40028075
:1028F00002880A430280704721B1028842F0010237
:10290000028004E002884FF6FE731A40028070478E
:1029100070B5002400220023058C4FF6FE7635406A
:102920000584028C8388048B4FF68F752C40B51E6E
:102930002C400D882C43751E2A408D892A434D88D2
:102940002A43524DA84202D0564DA84213D14FF609
:10295000F7752A40CD892A434FF6FB752A408D88AA
:102960002A434FF6FF652B404FF6FF552B400D8A4B
:102970002B434D8A2B43838004838D6845630284F7
:1029800070BD70B5002400220023058C4FF6EF7651
:1029900035400584028C8388048B48F6FF752C40F3
:1029A0004FF6FF452C400D884FF6FF7606EA0525C9
:1029B0002C434FF6DF752A408D8906EA05152A4318
:1029C0004D8806EA05152A43304DA84202D0354D00
:1029D000A8421DD14FF67F752A40CD894FF6FF766C
:1029E00006EA05152A434FF6BF752A408D8806EA88
:1029F00005152A434FF6FF352B404FF2FF752B404C
:102A00000D8A06EA85052B434D8A06EA85052B4388
:102A1000838004838D688563028470BD70B5002453
:102A200000220023058C4FF6FF6635400584028C9A
:102A30008388848B4FF68F752C404FF6FC752C40A5
:102A40000D882C434FF6FF552A408D894FF6FF76AF
:102A500006EA05252A434D8806EA05252A430B4D3B
:102A6000A84202D00F4DA84238D14FF2FF752A403C
:102A7000CD894FF6FF7606EA05252A434FF6FF3546
:102A80002A408D8806EA05252A4319E00000014006
:102A90000004004000080040000C0040001000400E
:102AA0000014004000040140004001400044014087
:102AB0000048014000180040001C00400020004079
:102AC0004EF6FF752B404DF6FF752B400D8A06EA3A
:102AD00005152B434D8A06EA05152B438380848315
:102AE0008D68C563028470BD70B500220023002488
:102AF000058C4EF6FF7635400584038C8488828BE6
:102B000048F6FF752A404FF6FF452A400D884FF6DC
:102B1000FF7606EA05252A434DF6FF752B408D8981
:102B200006EA05352B434D8806EA05352B43FE4D55
:102B3000A84202D0FD4DA84208D14BF6FF752C40AB
:102B40000D8A4FF6FF7606EA85152C438480828332
:102B50008D680564038470BD0021018041808180FF
:102B600081608181C18101824182704770B50346D5
:102B7000002000241846183001258D40ACB21D8C71
:102B8000A5431D8409B108290AD100EB610005683D
:102B90004FF68F76354005600568154305600FE0F8
:102BA0000D1FC5F34E052844056848F6FF763540ED
:102BB000056005684FF6FF7606EA02263543056094
:102BC00070BD4163704781637047C16370470164A2
:102BD00070470A460021018B4FF68F73194011434D
:102BE000018370470A460021018B48F6FF731940A4
:102BF0004FF6FF7303EA02231943018370470A4625
:102C00000021818B4FF68F731940114381837047E8
:102C10000A460021818B48F6FF7319404FF6FF7377
:102C200003EA02231943818370470A460021018B7E
:102C30004FF6F77319401143018370470A4600218C
:102C4000018B4FF2FF7319404FF6FF7303EA022323
:102C50001943018370470A460021818B4FF6F773B1
:102C600019401143818370470A460021818B4FF23E
:102C7000FF7319404FF6FF7303EA02231943818360
:102C800070470A460021018B4FF6FB731940114330
:102C9000018370470A460021018B4FF6FF3319402C
:102CA0004FF6FF7303EA02231943018370470A4674
:102CB0000021818B4FF6FB731940114381837047CC
:102CC0000A460021818B4FF6FF3319404FF6FF7300
:102CD00003EA02231943818370470A460021018BCE
:102CE0004FF67F7319401143018370470A46002154
:102CF000018BC1F30E014FF6FF7303EA0223194360
:102D0000018370470A460021818B4FF67F7319407B
:102D10001143818370470A460021818BC1F30E0164
:102D20004FF6FF7303EA02231943818370470A4673
:102D30000021018C4FF6FD73194011430184704747
:102D40000A460021018C4FF6F773194011430184A4
:102D500070470A460021018C4FF6DF7319404FF689
:102D6000FF7303EA02131943018470470A460021E6
:102D7000018C4FF67F7319404FF6FF7303EA02137D
:102D80001943018470470A460021018C4FF6FF5316
:102D900019404FF6FF7303EA022319430184704779
:102DA0000A460021018C4FF2FF7319404FF6FF7362
:102DB00003EA02231943018470470A460021018C6B
:102DC0004DF6FF7319404FF6FF7303EA02331943C0
:102DD0000184704730B5002301248C40A3B2048CD9
:102DE0009C430484048C02FA01F5ADB22C430484A4
:102DF00030BD30B5002304248C40A3B2048C9C4326
:102E00000484048C02FA01F5ADB22C43048430BD75
:102E1000828B4FF2FF331A408283828B4FF6FF730F
:102E200003EA01231A4382837047F0B50C46154626
:102E3000002100220026078C4EF6FF7C07EA0C07D3
:102E40000784818B028C4FF6FF7707EA043640F641
:102E5000FF4739404FF6FF7707EA052739434FF61A
:102E6000FF7707EA0337394345F6FF773A4046F4E0
:102E700080573A4381830284F0BD828B4FF6F3730F
:102E80001A408283828B0A4382837047F0B50C46D6
:102E90001546002100220026078C4FF6FF6C07EA3A
:102EA0000C070784818B028C4FF6FF7707EA042614
:102EB0004FF60C7739404FF6FF7707EA03172F4399
:102EC00039434FF2FF573A4046F480773A438183C3
:102ED0000284F0BD028B4FF2FF331A400283028B53
:102EE0004FF6FF7303EA01231A4302837047F0B5DC
:102EF0000C461546002100220026078C4FF6EF7C79
:102F000007EA0C070784018B028C4FF6FF7707EA6C
:102F1000041640F6FF4739404FF6FF7707EA0337BC
:102F200039434FF6FF7703E0000001400004014001
:102F300007EA052739434FF65F773A4046F0100716
:102F40003A4301830284F0BD028B4FF6F3731A40BB
:102F50000283028B0A4302837047F0B50C46154684
:102F600000210022068C4FF6FE773E400684018B3E
:102F7000028C4FF60C7631407E1C06EA03162E4377
:102F800031434FF6F576324044F001063243018377
:102F90000284F0BD70B505460C46208850B92389DF
:102FA000A28861882846FFF7D8FFE1882846FFF706
:102FB000CBFF25E0208804280AD12389A2886188D4
:102FC0002846FFF794FFE1882846FFF783FF17E0C4
:102FD000208808280AD12389A28861882846FFF71B
:102FE00055FFE1882846FFF748FF09E02389A288BA
:102FF00061882846FFF719FFE1882846FFF708FF98
:1030000070BD002101804180012181800021C180AB
:10301000018170472DE9F04105460C460026012745
:10302000608808B9022600E00026A088012801D1A6
:10303000022700E001272088A0B92389A28861889F
:103040002846FFF78AFFE1882846FFF77DFF23899E
:103050003A4631462846FFF74AFFE1882846FFF7FF
:1030600039FF13E02389A28861882846FFF73FFFD4
:10307000E1882846FFF72EFF23893A463146284645
:10308000FFF76BFFE1882846FFF75EFFBDE8F081A0
:103090000146486B70470146886B70470146C86B14
:1030A00070470146086C70470A884B881A438B8822
:1030B0001A43CB881A430B891A434B891A438B89CD
:1030C0001A43A0F84420704700210180418081808C
:1030D000C180018141818181704731B1B0F84420C4
:1030E00042F40042A0F8442005E0B0F84420C2F3C6
:1030F0000E02A0F84420704721B1828842F00402F9
:10310000828004E082884FF6FB731A408280704709
:1031100021B1828842F00102828004E082884FF669
:10312000FE731A40828070471AB183890B438381F2
:1031300002E083898B438381704781827047024616
:103140000020138A0B400BB1012000E000207047E3
:10315000CA430282704730B5024600200023002493
:10316000158A05EA0103958905EA010413B10CB13A
:10317000012000E0002030BDCA430282704741EACE
:103180000203A0F8483070471AB183890B4383814A
:1031900002E083898B438381704721B1828842F0AA
:1031A0000802828004E082884FF6F7731A4082801A
:1031B000704701894FF6F8721140018170470A4645
:1031C000002101894FF68F73194011430181704727
:1031D00030B504460D4629462046FFF7F0FF20890A
:1031E00040F00700208130BD2DE9F04104460D4636
:1031F00016461F46602D06D13B4601223146204629
:10320000FFF775FE05E03B46012231462046FFF7F9
:10321000A4FE29462046FFF7D2FF208940F0070090
:103220002081BDE8F08130B50C4600210189C9B28A
:103230004FF6FF7505EA0325154325432943018110
:1032400030BD2DE9F04105460E461746984600244C
:1032500043463A4631462846FFF7E5FF2C894FF6AC
:10326000F870044044F007044FF68F70044044F0B7
:1032700070042C81BDE8F081F0B504460D46164679
:103280001F463B46324629462046FFF7CCFF2089A1
:1032900040F480402081F0BD82884FF68F731A4041
:1032A000828082880A438280704702894FF6F873D1
:1032B0001A40028102890A430281704702894FF64F
:1032C0007F731A40028102890A4302817047F0B578
:1032D0000C4615461E460021002200230189028B60
:1032E000038C4FF6F877394021434FF6FC473A40BC
:1032F00040F201173A434FF6DD773B404FF6FF7738
:1033000007EA06172F433B43018102830384F0BD84
:1033100021B1828842F08002828004E082884FF6E8
:103320007F731A4082807047A0F8501070470000E9
:1033300010B50446FA48844208D101211020FFF755
:10334000B6F800211020FFF7B2F857E0F5488442A4
:1033500009D101214804FFF799F800214FF400300A
:10336000FFF794F84AE0F048844209D1012188042B
:10337000FFF78CF800214FF48020FFF787F83DE03D
:10338000EA48844209D10121C804FFF77FF80021EF
:103390004FF40020FFF77AF830E0E548844209D185
:1033A00001210805FFF772F800214FF48010FFF7A4
:1033B0006DF823E0DF48844208D101212020FFF787
:1033C00076F800212020FFF772F817E0DA488442EF
:1033D00009D101218807FFF759F800214FF08040FB
:1033E000FFF754F80AE0D548844207D1012140058F
:1033F000FFF74CF800216005FFF748F810BD2DE9F4
:10340000FF4705460E460024A14600BFA046B089EE
:1034100000B100BF2C8A24F44054F08804432C826D
:10342000AC8941F20C608443B088318908437189CA
:1034300008430443AC81AC8A24F44074B08904434B
:10344000AC826846FEF7B3FEB548854202D0B94863
:10345000854202D1DDF80C9001E0DDF80890A889E2
:1034600000F4004040B109EBC90000EB09103168DD
:103470004900B0FBF1F707E009EBC90000EB0910C8
:1034800031688900B0FBF1F76420B7FBF0F004016C
:103490002009642101FB1078A88900F4004040B1A4
:1034A000322000EBC800B0FBF1F000F0070004434D
:1034B00008E0322000EB08106421B0FBF1F000F0CE
:1034C0000F0004432C81BDE8FF874FF416510160C3
:1034D00000218180C18001810C21418100218181F5
:1034E000704710B502460020108A20F470600B88E7
:1034F0004C8823438C882343CC8823431843108271
:1035000010BD0021018041808180C180704721B1C0
:10351000828942F40052828104E082894DF6FF7371
:103520001A4082817047028B02F47F420283028B31
:103530000A430283704721B1828942F400428281AA
:1035400003E08289C2F30E028281704721B1828A30
:1035500042F40062828204E0828A4FF2FF731A40D2
:1035600082827047C1F308028280704701468888D2
:10357000C0F308007047028A4FF6F0731A400282C7
:10358000028A0A430282704721B1828942F0020214
:10359000828104E082894FF6FD731A408281704770
:1035A00082894FF2FF731A40828182890A438281A5
:1035B0007047028A4FF6DF731A400282028A0A437A
:1035C0000282704721B1028A42F48042028204E002
:1035D000028A4BF6FF731A4002827047818941F0DC
:1035E00001018181704721B1828A42F00802828202
:1035F00004E0828A4FF6F7731A4082827047028B8A
:10360000D2B20283028B42EA01220283704721B1C7
:10361000828A42F02002828204E0828A4FF6DF73BF
:103620001A408282704721B1828A42F0100282825F
:1036300004E0828A4FF6EF731A4082827047828AD2
:103640004FF6FB731A408282828A0A438282704755
:1036500021B1828A42F00202828204E0828A4FF61D
:10366000FD731A40828270471AB1838A0B438382AA
:1036700002E0838A8B4383827047F0B503460024BF
:1036800000260025002040F66A17B94200D100BF8D
:103690001846C1F3421401F01F06012707FA06F588
:1036A000012C01D10C3004E0022C01D1103000E0DB
:1036B00014301AB107682F43076002E00768AF4370
:1036C0000760F0BD02460020B1F5007F00D100BFC9
:1036D00013880B400BB1012000E00020704701F47B
:1036E0000072B2F5007F00D100BFCA43028070476C
:1036F00070B50246002400230025002040F66A161B
:10370000B14200D100BFC1F3421501F01F030126F1
:1037100006FA03F3012D13D19689334017E0000018
:10372000001001400044004000480040004C0040B0
:10373000005000400014014000780040007C004030
:10374000022D02D1168A334001E0968A33400C12D2
:10375000012606FA04F41688344013B10CB1012096
:1037600000E0002070BD10B50022002340F66A146E
:10377000A14200D100BF0A1201249440A3B2DC434D
:10378000048010BD01B581B0002000900198009028
:1037900002E00098401E009000980028F9D10CBD6E
:1037A00010B501214806FEF73EFE00214FF00070E3
:1037B000FEF739FE10BD01210160002141608160EA
:1037C000C16001614FF48041416100218161C161AB
:1037D0004FF400610162002141628162C1620163B4
:1037E00041638163C1634021016420214164002160
:1037F0008164C164016541658165C165016680219F
:10380000416600218166C166016741678167C167C2
:103810004FF08061C0F880104910C0F8841000217A
:10382000C0F888104FF40011C0F88C100021C0F8C7
:103830009010C0F89410C0F89810C0F89C10C0F810
:10384000A0104FF00071C0F8A4104912C0F8A810E1
:103850008901C0F8AC104912C0F8B0100021C0F8BE
:10386000B410C0F8B810704738B503460C460021B4
:1038700000200090F648016901F01C014FF47840E7
:1038800000EAC32001434FF4F86000EA84100143CA
:1038900041F0020141F00101ED484261016100BFC8
:1038A0000098401C0090EA48016901F0010018B13D
:1038B000E84D0098A842F3D3E64D0098A84201D104
:1038C000002038BD0120FCE718B502460B46002158
:1038D00000200090DE48016901F01C014FF478409F
:1038E00000EAC22001434FF4F86000EA831001436C
:1038F00021F0020141F00101D548016100BF0098AB
:10390000401C0090D248016901F0010018B1D14C6F
:103910000098A042F3D3CF4C0098A04201D10020E0
:1039200018BDCB48406980B2FAE72DE9F04186B076
:1039300004460F464FF00008002500200590C64EB3
:103940000090C348056925F01C0501A8FEF72FFC6F
:10395000029EC248864205D3C148864202D245F043
:1039600008051AE0BE48864205D3BB48864202D20B
:1039700045F00C0511E0B848864203D3B9488642A9
:1039800000D20AE0B748864205D3B748864202D241
:1039900045F0040501E045F01005AD4805614FF420
:1039A000004200213846FFF75FFF18B9002006B03B
:1039B000BDE8F081AD48FFF7E5FE206800284ED055
:1039C00000BF0098401C009001213846FFF77CFFA3
:1039D00000F0040018B99F4900988842F1D39D492E
:1039E0000098884201D10020E1E7002000904FF4C8
:1039F000805200213846FFF737FF08B90020D6E78C
:103A000000BF0098401C009001213846FFF75CFF82
:103A100000F0200018B98F4900988842F1D38D49F1
:103A20000098884201D10020C1E7002000901F21AA
:103A30003846FFF749FF804608F0100018B14FF4F0
:103A40000060206201E00020206208F0040010B154
:103A50000020606116E04FF48040606112E0206A4F
:103A6000C0F3CF006169C1F34F0140EA01020021B8
:103A70003846FFF7F9FE08B9002098E76FF07F405D
:103A8000FFF780FE7248056879480540D4E90101D6
:103A90000843E16808432169084361690843A16953
:103AA0000843E1690843216A0843616A0843A16A3F
:103AB0000843E16A0843216B0843616B08430543EF
:103AC00063480560D4E90E010843216C0843616C2A
:103AD0000843A16C0843E16C0843216D0843616D04
:103AE00008435B494860A06D8860E06DC860084687
:103AF00085694FF641700540B4F86010606E40EA89
:103B00000140A16E0843E16E0843216F0843616FD5
:103B1000084305434E488561D4E91E0108434C49DA
:103B2000C8615448856954480540D4E920010843D8
:103B3000D4F888100843D4F88C100843D4F89010B7
:103B40000843D4F894100843D4F898100843D4F8E4
:103B50009C100843D4F8A0100843054345488561EC
:103B6000D4E929010843D4F8AC100843D4F8B010C4
:103B70000843D4F8B41040EA8100D4F8B8100843E0
:103B800040F400003B4908600846006840F08000AF
:103B9000086001200BE730B13649896941F0020124
:103BA000344A916105E03349896921F00201314AC3
:103BB0009161704730B12F49896941F400512D4A14
:103BC000916105E02B49896921F40051294A9161ED
:103BD000704730B11E49096841F004011C4A116068
:103BE00005E01B49096821F00401194A116070477A
:103BF0002048806940F480101E498861704730B1C8
:103C00001349096841F00801114A116005E01049A3
:103C1000096821F008010E4A1160704700B50120C3
:103C2000FFF7EDFFFFF7E4FF0120FFF7D2FF0120D0
:103C3000FFF7C0FF0120FFF7AEFF00BD00200449E1
:103C4000896901F0010109B1012000E000207047FD
:103C500000800240FFFF040000879303002D310124
:103C6000C00E160200E1F50580D1F008FFFF0F003D
:103C70000F8120FF00900240233FDEF8FB4880695F
:103C800040F00100F9498861704730B1F74989690E
:103C900041F00101F54A916105E0F449896921F09B
:103CA0000101F24A9161704701460020EF4A926B90
:103CB0000A400AB1012000E00020704701460020C0
:103CC000EA4A926B0A400AB1012000E000207047E6
:103CD00029B1E64AD26B8243E44BDA6304E0E34A5B
:103CE000D26B0243E14BDA63704710B50B794C7924
:103CF00043EA0422DD4B03441A64CB781B068C781C
:103D000043EA04434C7843EA04230C7843EA040270
:103D1000D64B03445A6410BD0246D44B1344186C6E
:103D2000030A4B710871D14B1344586C030ECB70CE
:103D3000030C8B70030A4B700870704741B1CB4A7B
:103D40000244126C42F00042C84B03441A6407E07C
:103D5000C64A0244126C22F00042C44B03441A6467
:103D60007047082908D0C14A0244126C42F08042D0
:103D7000BE4B03441A6407E0BC4A0244126C22F0B2
:103D80008042BA4B03441A647047B84A0244126C2A
:103D900022F07C52B54B03441A64B44A0244126CBC
:103DA0000A43B24B03441A6470471EB50021002237
:103DB000009201920292AE4A12681268C2F30D425A
:103DC000111F0091AB4A12689268012A05D9A94ACD
:103DD000126812689268019203E0A54A126892681C
:103DE0000192A34A12680292A14A1268D268A04BBB
:103DF0001A609DE81C0080E81C001EBD0FB5002164
:103E000001910291039100916FE00099491C00918A
:103E100097490968096801F40071A1B194490968DA
:103E2000096801F4807171B991490968914A126871
:103E3000116001218F4A126891608D490968C96833
:103E40008B4A116051E08A490968096801F4807160
:103E500091B987490968096801F4007161B9854918
:103E600009688968491C834A126891608049096819
:103E7000C9687F4A116038E07D4909687D4A126847
:103E800051607C4909688968491C7A4A12689160C6
:103E9000784909688968012904D175490968754A12
:103EA00012681160724909680968C1F30D41091F60
:103EB0000191704909688968012905D96D49096826
:103EC00009688968029103E0694909688968029173
:103ED00067490968039166490968C968644A1160BD
:103EE00001A90EC980E80E000FBD61490968096883
:103EF00001F0004111B90099052986D301A90EC925
:103F000080E80E0000BFEFE770B5024600230025F1
:103F1000002459480068006800F0004008B1002003
:103F200070BD5548016840F2F450824208DD92FBB2
:103F3000F0F392FBF0F600FB162010B15B1C00E0E2
:103F40000123012B1AD14C480068006840F0405012
:103F5000494E36683060C2F30C00474E36687060D8
:103F600045480068006840F00040434E36683060C5
:103F700041480068C068404E306028E0002422E0DC
:103F80003CB93D480068006840F080503A4E3668C1
:103F9000306040F2F4504860581EA0420DD10868CD
:103FA00040F000500860581EC0EBC01000EB40000D
:103FB000A2EB8005C5F30C004860086840F00040A3
:103FC0000860C968641C9C42DAD32B4801602B4806
:103FD000406900F0040020B10420284E70610020E8
:103FE000706001209CE770B50C4613460021204DFF
:103FF000286000BF18E000EB41124FF0004515604B
:1040000044F2F4555560C1EBC11505EB450504EBD1
:10401000850595605D1E8D4204D900EB4115203564
:10402000D56000E0D060491C9942E4D3134DE860AC
:10403000134D104E356070BD0D480068006800F0EB
:104040000040F8B90A480068006800F48070C8B100
:1040500007480068074909684860064800688068A2
:10406000401C0449096888600120704700800240B4
:104070004400002048000020400000200090024042
:10408000380F0020F9480068006800F00040F0B9DF
:10409000F6480068006800F40070C0B1F34800689A
:1040A000006800F4807090B9F0480068F049096831
:1040B00008600020EE49096848600120EC49096861
:1040C0008860EA480068C068E84908601DE0E74881
:1040D0000068006800F00040B8B9E4480068006873
:1040E00000F4007088B9E1480068006800F480704E
:1040F00058B9DF4800688068401CDD49096888605D
:10410000DA480068C068D94908600020ADE730B5DA
:104110000C4613460021D74D286000BF15E000EB88
:1041200041124FF480151560C1EBC11505EB450533
:1041300004EB850595605D1E8D4204D900EB4115A9
:104140002035D56000E0D060491C9942E7D3CA4DC4
:10415000286130BD0246002013680B400BB10120DE
:1041600000E00020704701460868C0F3C3007047B4
:10417000016841F000410160704721B1026842F0DE
:104180008042026003E0026822F0804202607047D1
:1041900002680A430260704702680A43026070477F
:1041A00021B1026822F00062026003E0026842F07E
:1041B00000620260704721B1026842F4801202601E
:1041C00003E0026822F480120260704721B10268A5
:1041D00022F08062026003E0026842F080620260C6
:1041E000704710B541EA024443682343436010BD61
:1041F0000246002013680B400BB1012000E00020B4
:1042000070470246002013690B400BB1012000E00B
:1042100000207047016841F000410160704701468D
:104220000868C0F30D40704721B1426822F0004297
:10423000426003E0426842F000424260704702463A
:1042400019B15068C0F30C4070479088C0F30C005F
:10425000FAE700B502460023106800F0004058B9A4
:10426000106800F4004038B9106800F4807018B18C
:104270001046FFF7D4FF0346184600BD30B17E4913
:10428000096841F080017C4A116005E07A490968BB
:1042900021F08001784A116070477748006840F04B
:1042A000010075490860704700207349096801F0F2
:1042B000010109B1012000E0002070470146002003
:1042C0006D4A52690A400AB1012000E0002070479F
:1042D00069494861704729B1674AD2690243664B10
:1042E000DA6104E0644AD2698243634BDA61704761
:1042F00001460020604A52690A400AB1012000E0EC
:10430000002070475C49486170475B48406900F095
:10431000010070475848406900F040007047002095
:104320005549896901F4801109B1012000E000209C
:10433000704701460020504A126A0A400AB1012023
:1043400000E0002070474C48006AC0F34A407047C4
:104350004948006A80B270474748806C70474648B9
:10436000C06C70474448006D70474348406D7047CB
:10437000002041494860704700203F4988607047ED
:104380003D494862704770B506460D46002400213D
:104390003046FFF799FA044615B144F4804402E030
:1043A0004BF6FF700440224600213046FFF75CFACE
:1043B00008B1012070BD0020FCE73048C06A40F021
:1043C00000402E49C86270470146002000BF04E04B
:1043D00051F82020294B9A62401C0828F8D37047D6
:1043E00030B12649C96A41F40071244AD16205E01E
:1043F0002249C96A21F40071204AD16270470146FE
:1044000000201E4AD26A0A400AB1012000E00020C2
:10441000704730B11949C96A41F00401174AD162A5
:1044200005E01649C96A21F00401144AD1627047B7
:1044300030B11249C96A41F00201104AD16205E067
:104440000E49C96A21F002010C4AD162704730B1AD
:104450000A49C96A41F00101084AD16205E00749E9
:10446000C96A21F00101054AD16270474400002069
:1044700048000020400000200090024000800240E0
:104480004E48006840F030004D49C1F800017047C7
:104490004A48006820F020004949C1F80001084658
:1044A000D0F8000140F01000C1F80001704738B1A9
:1044B0004249096841F00801414AC2F8001106E08A
:1044C0003E49096821F008013D4AC2F800117047D1
:1044D00038B13A49096841F00401394AC2F800117B
:1044E00006E03649096821F00401354AC2F8001196
:1044F000704738B13149096821F00201304AC2F8E9
:10450000001106E02D49096841F002012C4AC2F869
:10451000001170472948006840F001002849C1F89F
:104520000001704700F0805292B120F0805039B104
:10453000224A0C3212688243214BC3F80C2117E047
:104540001E4A0C32126802431D4BC3F80C210FE0C7
:1045500039B11A4A103212688243194BC3F810213C
:1045600006E0164A103212680243154BC3F81021B8
:1045700070470146002001F080526AB10F4A121DB7
:1045800012680A4032B10D4A0C3212680A400AB968
:1045900001200EE000200CE0084A083212680A40B0
:1045A00032B1064A0C3212680A400AB9012000E012
:1045B00000207047014602480858704700810240B9
:1045C0000080024030B943F2DB028100A1F1C0411A
:1045D0000A6005E043F2D2028100A1F1C0410A6005
:1045E0006FF07042411C8900A1F1C0410A60810056
:1045F000A1F1C041C1F804217047D0E90112114373
:10460000C26811430269114342691143826911432F
:10461000C2691143026A1143426A1143826A11431B
:10462000C26A1143026B114302689200A2F1C042B8
:104630001160816808290BD101688900A1F1C0418E
:10464000096841F0400201688900A1F1C0410A6097
:10465000416B0968426B526841EA0211426B9268F1
:1046600041EA0221426B928941EA0241426B128A7D
:1046700041EA0251426B127D41EA0261426B92694A
:1046800011430268521C9200A2F1C0421160C16A3B
:10469000B1F5804F1BD1816B0968826B526841EA8A
:1046A0000211826B926841EA0221826B128A41EA0E
:1046B0000251826B127D41EA0261826B9269114361
:1046C00002689200A2F1C042C2F8041107E06FF044
:1046D000704201688900A1F1C041C1F8042170470E
:1046E000002101600221416000218160C1600161FF
:1046F00041618161C16101624FF4805141624900B1
:1047000081620021C1620163F8494163816370479E
:1047100051B18200A2F1C042126842F0010382004E
:10472000A2F1C042136009E08200A2F1C042126807
:10473000EF4B1A408300A3F1C0431A607047102862
:104740000AD118214FF020421166402151664FF0E6
:10475000FC319166D16610E01821E64A11604021D3
:104760004FF02042C2F884104FF0FC31E14A083289
:1047700011604FF02042C2F88C10704730B5002114
:1047800000220023446844F0080485682C43C5686F
:104790002C4305692C43456944EA4524856944EA6C
:1047A0004531C4692468C5696D6844EA0524C56952
:1047B0002D8944EA0544C5692D7B44EA0562046AF3
:1047C0002468056A6D6844EA0524056A2D8944EA6F
:1047D0000544056A2D7B44EA05630468102C05D165
:1047E0004FF020442166A266E36608E0C14C2160D8
:1047F0004FF02044C4F88820BE4C0C34236030BDF8
:1048000010210160002141608160C160016141614E
:104810008161FC21C2691160C2695160C269916005
:10482000C269D160026A1160026A5160026A9160D5
:10483000026AD160704799B1102808D14FF0204228
:10484000126E42F004024FF020431A661DE0A94A9E
:10485000126842F004024FF02043C3F8802014E0B5
:10486000102809D14FF02042126EA14BDB1E1A40D6
:104870004FF020431A6608E09E4A12689C4BDB1EEC
:104880001A404FF02043C3F88020704799B1102898
:1048900008D14FF02042126E42F040024FF0204308
:1048A0001A661DE0934A126842F040024FF020431E
:1048B000C3F8802014E0102809D14FF02042126E76
:1048C0008B4B3F3B1A404FF020431A6608E0894A61
:1048D0001268874B3F3B1A404FF02043C3F88020BB
:1048E000704701460020102903D14FF02042506F3D
:1048F00002E0804A14321068704718207D49203148
:10490000086000200906C1F8A4004FF0FC30794986
:1049100028310860091D0860091D0860704701689A
:1049200041F01001426841EA4221826841EA423185
:10493000704A20321160C1680968C268526841EA51
:104940000221C268128941EA0241C268127B41EA2F
:104950000261684A28321160016909680269526877
:1049600041EA02210269128941EA02410269127B8D
:1049700041EA02615F4A2C3211604169096842696B
:10498000526841EA02214269128941EA02414269C0
:10499000127B41EA02614FF02042C2F8B01070472A
:1049A0000021016041608160FC21C2681160C26821
:1049B0005160C2689160C268D16002691160026989
:1049C0005160026991600269D16042691160426977
:1049D0005160426991604269D160704748B1454970
:1049E0002031096841F004014FF02042C2F8A010C4
:1049F00009E04049203109683D4AD21E11404FF07C
:104A00002042C2F8A010704710B5F2B1102807D1AB
:104A10004FF020435B6E0B434FF02044636632E05F
:104A2000B0F5807F08D1334B1B1D1B680B434FF043
:104A30002044C4F8843026E02E4B24331B680B43FB
:104A40004FF02044C4F8A4301DE0102807D14FF0E7
:104A500020435B6E8B434FF02044636613E0B0F558
:104A6000807F08D1234B1B1D1B688B434FF02044D4
:104A7000C4F8843007E01F4B24331B688B434FF08E
:104A80002044C4F8A43010BD10B502460020002315
:104A9000102A03D14FF02044636E09E0B2F5807F05
:104AA00003D1144C241D236802E0124C24342368E3
:104AB00003EA01040CB1012000E0002010BD102821
:104AC00007D14FF02042526E8A434FF020435A667E
:104AD00019E0B0F5807F0FD1064A121D12688A4393
:104AE0004FF02043C3F884200DE00000ECD3010810
:104AF000FEFF0F00800000A0234A12688A434FF097
:104B00002043C3F8A420704770B50246002000235C
:104B100000240025102A03D14FF02046736E08E0D0
:104B2000B2F5807F03D1184E203E336801E0164E67
:104B3000336803EA010403EAD10514B10DB1012081
:104B400000E0002070BD102808D14FF02042526EC6
:104B500022EAD1024FF020435A6614E0B0F5807F7C
:104B600009D1094A203A126822EAD1024FF02043C3
:104B7000C3F8842007E0044A126822EAD1024FF009
:104B80002043C3F8A4207047A40000A010B5044639
:104B9000FE48844209D101214806FDF777FC002137
:104BA0004FF00070FDF772FC08E001218806FDF768
:104BB0006DFC00214FF08060FDF768FC10BD30B542
:104BC000024600200023146824F0020414601468D4
:104BD00044F00104146000E05B1C546804F001041C
:104BE0001CB94FF6FF74A342F6D1546804F00104D7
:104BF0000CB900206CE08C79012C04D1146844F0CD
:104C00008004146003E0146824F080041460CC79FC
:104C1000012C04D1146844F04004146003E01468CB
:104C200024F0400414600C7A012C04D1146844F080
:104C30002004146003E0146824F0200414604C7A0B
:104C4000012C04D1146844F01004146003E01468CB
:104C500024F0100414608C7A012C04D1146844F000
:104C60000804146003E0146824F008041460CC7A8B
:104C7000012C04D1146844F00404146003E01468A7
:104C800024F0040414608C78A407CD7844EA056409
:104C90000D7944EA05444D7944EA05540D886D1EAA
:104CA0002C43D461146824F001041460002300E054
:104CB0005B1C546804F001041CB14FF6FF74A3425E
:104CC000F6D1546804F001040CB1002000E001208A
:104CD00030BD10B50021837A012202FA03F1AC4AFB
:104CE000126842F00102AA4B1A60A94A1C321268EB
:104CF0008A43A74B1C331A60027BCAB9A44A0C3200
:104D000012688A43A24B0C331A604288C38842EA75
:104D100003439F4A4032847A42F8343002888388C1
:104D200042EA03439A4A4032847A02EBC402536057
:104D3000027B012A19D1964A0C3212680A43944B1D
:104D40000C331A604288038842EA0343904A403297
:104D5000847A42F83430C288838842EA03438C4A1A
:104D60004032847A02EBC4025360C27A3AB9884A6C
:104D7000121D12688A43864B1B1D1A6006E0844A86
:104D8000121D12680A43824B1B1D1A60028932B938
:104D90007F4A143212688A437D4B14331A600289A9
:104DA000012A06D17A4A143212680A43784B143326
:104DB0001A60427B012A06D1754A1C3212680A43E6
:104DC000734B1C331A60724A126822F00102704B56
:104DD0001A6010BD00218171C1710172417281722E
:104DE000C1728170C17003210171022141710121E1
:104DF000018070476649096841F00101644A116009
:104E00001146096843F60E729143614A11601146DA
:104E1000096841EA002111601146096821F0010189
:104E20001160704721B1026842F48032026003E0F1
:104E3000026822F4803202607047E1B1026842F0F9
:104E4000800202604FF4C272125842F480734FF431
:104E5000C27213504FF4CA72125842F480734FF466
:104E6000CA7213504FF4D272125842F480734FF446
:104E7000D27213501BE0026822F0800202604FF4ED
:104E8000C272125822F480734FF4C27213504FF45E
:104E9000CA72125822F480734FF4CA7213504FF43E
:104EA000D272125822F480734FF4D27213507047AA
:104EB00010B502460020936803F08063B3F1806F61
:104EC00000D110E0936803F00063B3F1006F01D1EB
:104ED000012008E0936803F08053B3F1805F01D1B3
:104EE000022000E00420042879D002F5C07303EB0F
:104EF00000131B6803F0010402F5C07303EB0013F9
:104F00001C600B7A7BB94B7A0C8843EA445302F558
:104F1000C07404EB00142468234302F5C07404EB4E
:104F20000014236010E00B7A4C6843EAC4034C7A07
:104F3000234302F5C07404EB00142468234302F5F4
:104F4000C07404EB001423608B7A03F00F038B72A0
:104F500002F5C07303EB00135B6823F00F0402F546
:104F6000C07303EB00135C6002F5C07303EB001326
:104F70005B688C7A234302F5C07404EB0014636011
:104F80008B7B1C064B7B44EA034403E00064004037
:104F9000006600400B7B44EA0323CC7A234302F5EE
:104FA000C07404EB0014A3608B7C1C064B7C44EAA9
:104FB00003440B7C44EA0323CC7B234302F5C074F7
:104FC00004EB0014E36002F5C07303EB00131B68ED
:104FD00043F0010402F5C07303EB00131C6010BD25
:104FE00010B50246002321B1012907D002290FD1B3
:104FF00009E09068F94C00EA04030BE09068F84C73
:1050000000EA040306E09068F64C00EA040301E0BD
:10501000002300BF00BFF44C181BA34216D007DCCE
:1050200083B16FF08060184470B1022818D111E08C
:10503000B0F5007F10D0ED4C204448B1B0F5003FF2
:105040000ED10BE002230DE000230BE0002309E06A
:10505000002307E0012305E0012303E0012301E031
:10506000002300BF00BFD8B210BD21B1012907D075
:1050700002290FD109E0826842F0800282600AE0D2
:10508000826842F40042826005E0826842F40002D5
:10509000826000E000BF00BF704710B500F5D87314
:1050A00003EB01131B6803F004031372137A53B963
:1050B00000F5D87303EB01131B6840F2FF7404EA98
:1050C0005353136009E000F5D87303EB01131B6819
:1050D0006FF0604404EAD303536000F5D87303EB28
:1050E00001131B6803F00203537200F5D87303EB3E
:1050F00001135B6803F00F03937200F5D87303EBA1
:1051000001135B681B0AD37400F5D87303EB01131A
:105110009B68D37200F5D87303EB01139B681C0ADC
:10512000147300F5D87303EB01139B681C0C5473C4
:1051300000F5D87303EB01139B681B0E937300F506
:10514000D87303EB0113DB68D37300F5D87303EB5B
:105150000113DB681C0A147400F5D87303EB011308
:10516000DB681C0C547400F5D87303EB0113DB6887
:105170001B0E937421B9C36843F02003C36003E09E
:10518000036943F02003036110BD21B9C26842F0F6
:105190002002C26003E0026942F02002026170470F
:1051A0000246002019B9D36803F0030006E0012984
:1051B00003D1136903F0030000E00020704710B52D
:1051C00002460B4600204FF6FF71BBB9146824F06D
:1051D000020444F00104146000E0491E546804F025
:1051E0000304012C01D00029F7D1546804F0030412
:1051F000012C01D0002032E0012030E0012B13D13E
:10520000146824F00304146000E0491E546804F09C
:1052100003040CB10029F8D1546804F003040CB164
:1052200000201CE001201AE0022B17D1146824F0A2
:10523000010444F00204146000E0491E546804F0C4
:105240000304022C01D00029F7D1546804F00304B0
:10525000022C01D0002002E0012000E0002010BD5F
:10526000014600200A6822F0010242F002020A60B0
:105270004A6802F00302022A00D101207047014669
:105280004FF6FF7200200B6823F002030B6000E072
:10529000521E4B6803F00203022B01D1002AF7D102
:1052A0004B6803F00203022B00D001207047014637
:1052B00000208A6902F070007047014600208A6968
:1052C000100E7047014600208A69C2F307407047FC
:1052D0001AB143690B43436102E043698B43436165
:1052E000704710B50246002001F4700343B1936982
:1052F000C1F3130423400BB101202DE000202BE06B
:1053000001F0807343B15368C1F3130423400BB120
:10531000012021E000201FE001F0006343B1936809
:10532000C1F3130423400BB1012015E0002013E06A
:1053300001F0007343B1D368C1F3130423400BB1F0
:10534000012009E0002007E01369C1F313042340A2
:105350000BB1012000E0002010BD0022244B994237
:1053600002D10023836111E0C1F3130201F0007345
:105370000BB1C2600AE001F080630BB1026105E08D
:1053800001F000630BB1826000E0426070470246AA
:10539000002002EA01030BB1012000E00020704769
:1053A00070B504460D46002660692840002872D07A
:1053B000B5F5807F69D01DDC082D42D006DC012DBB
:1053C0002DD0022D31D0042D7FD134E0102D3ED0D0
:1053D000202D42D0402D78D145E00000030000048C
:1053E0000003000800000310000100080001FFF79F
:1053F0007000F030B5F5004F61D009DCB5F5007FE5
:105400004AD0B5F5806F4DD0B5F5006F5DD150E055
:10541000B5F5803F2DD0B5F5003F56D12FE0A068FF
:105420005549FFF7B4FF064651E0E0680321FFF756
:10543000AEFF06464BE0E0680821FFF7A8FF0646EE
:1054400045E0E0681021FFF7A2FF06463FE0206933
:105450000321FFF79CFF064639E020690821FFF78A
:1054600096FF064633E020691021FFF790FF0646BD
:105470002DE060680821FFF78AFF064627E0606894
:105480001021FFF784FF064621E0A0690121FFF704
:105490007EFF06461BE01BE0A0690221FFF777FFB5
:1054A000064614E0A0690421FFF771FF06460EE0EE
:1054B0000BE0A0697021FFF76AFF064607E060680D
:1054C0000421FFF764FF064601E0002600BF00E06C
:1054D0000026304670BDB1F5007F3AD00FDC2029A0
:1054E00028D006DC01291CD004291DD0082940D170
:1054F0001DE0402921D0B1F5807F3AD126E0B1F5F9
:10550000004F31D006DCB1F5806F25D0B1F5006FCA
:105510002FD124E0B1F5803F12D0B1F5003F28D162
:1055200011E0154A826025E00822C26022E01022C4
:10553000C2601FE0082202611CE01022026119E033
:105540000822426016E01022426013E0042242600A
:1055500010E0042242600DE0042242600AE00022D2
:1055600082610422426005E00022826104224260DE
:1055700000E000BF00BF70470101010010B510F04E
:105580008BF810BD10B510F0CCF810BD10B5044666
:10559000204612F0B3F810BD10B53E48007801283F
:1055A00005D10FF0DBFF10F01CF90FF0F2FF10BD7A
:1055B00070B504466FF00400FCF788FBE11704EBBC
:1055C0005171C1F3C701344A1170E11704EB5171F5
:1055D000CD104FF47A7045430120304908804FF0D8
:1055E000E020006940F002004FF0E0210861084629
:1055F0004561006940F00100086170BD2DE9F04788
:10560000074600264FF0E020D0F81490224800789A
:1056100007FB00F800BFFFF7B1FF4FF0E0208569FE
:1056200011E04FF0E0208469AC420CD0AC4202D2D1
:10563000281B064403E0A9EB040028440644254641
:10564000464500D300E0ECE700BFFFF79BFFBDE855
:10565000F08770B504460F480078A0B11048007874
:1056600088B90E480088844206DB0C48008894FB09
:10567000F0F52846FFF78AFF0848008894FBF0F110
:1056800000FB114084B24FF47A7104FB01F0FFF784
:10569000B5FF70BDC602002050000020520000205F
:1056A000B902002000BF704700BF614A128802F0B3
:1056B0004002002AF9D0C2B25D4B9A80704710B503
:1056C00088B0044601210846FCF742FE0121102063
:1056D000FCF798FE072209215648FCF726FC072212
:1056E0000A215448FCF721FC4FF4C06006900220C8
:1056F0008DF81C008DF81D0000208DF81E00012083
:105700008DF81F0006A94B48FCF784FB029400208B
:10571000ADF80C00ADF80E00ADF81000ADF81400B7
:105720000C20ADF8120002A94148FDF768FE0121E6
:105730003F48FDF7ECFE40213D48FDF7D0FF012238
:1057400040F225513A48FDF798FF25208DF80400D6
:1057500003208DF805008DF8060001208DF8070064
:1057600001A8FCF766FA08B010BD10B5044632482F
:10577000008800F4004000BB2F480088C0F30D00F3
:105780002E490C542C480088401C2B4908800846A0
:105790000088042821DD29480079801D0988884275
:1057A0001BD125480188254813F0CCFE22480088EB
:1057B00040F40040204908800FE0AA2C0DD10020C1
:1057C0001D49088008460088C0F30D001B490C5491
:1057D00019480088401C18490880002010BD10B5E9
:1057E0000FF0BCFE40F225511148FDF781FF30B1AA
:1057F0000F48FDF7BBFEC4B22046FFF7B6FF0FF01F
:10580000C8FE10BD70B505460E4600240CE000BF72
:1058100040210748FDF756FF0028F9D0295D0448CC
:10582000FDF7A0FE601C84B2B442F0DB70BD000046
:10583000001001400000024058000020440F0020EA
:1058400010B501460020002205E08B5C303B0A24A5
:1058500000FB0430521C8B5C302B02DB8B5C392B41
:10586000F3DD10BD10B540F225514C48FDF740FF67
:1058700008B34A48FDF77AFEC4B24948008800F4EC
:10588000004010BB47480078042806D14003444933
:1058900008800020434908701CE0202C0CD1C8214E
:1058A000414814F0B7FA3F480078401C3D49087061
:1058B00000203B4908800DE0394801880088401CE1
:1058C000374A10803848445404E0412C02D100206B
:1058D0003349088010BD10B588B00446012102206C
:1058E000FCF736FD01218804FCF77BFD2B48FDF712
:1058F0001FFD07220B212D48FCF717FB07220A2169
:105900002A48FCF712FB4FF44060059002208DF806
:1059100018008DF8190000208DF81A0001208DF86C
:105920001B0005A92148FCF775FA01940020ADF889
:105930000800ADF80A00ADF80C00ADF810000C201E
:10594000ADF80E0001A91548FDF759FD01211348D6
:10595000FDF7DDFD012240F225511048FDF78DFED7
:1059600027208DF81C0002208DF81D0003208DF8E3
:105970001E0001208DF81F0007A8FCF75AF942F21B
:10598000CF016320FBF746F800200549088000217D
:105990000748FCF7B1FF08B010BD00000048004008
:1059A0005A0000205C0000200C100020000402407F
:1059B0000014004010B504469F48008800F40040E1
:1059C00000BB9D480088C0F30D009C490C549A48C8
:1059D0000088401C9849088008460088042821DD7A
:1059E00096480079801D098888421BD19248018819
:1059F000924813F0A7FD9048008840F400408E497B
:105A000008800FE0AA2C0DD100208B4908800846A1
:105A10000088C0F30D0089490C5487480088401C59
:105A200085490880002010BD10B540F225518448FA
:105A3000FDF75EFE30B18248FDF798FDC4B2204606
:105A4000FFF7B8FF10BD10B588B00446012104204F
:105A5000FCF77EFC01212020FCF7D4FC7848FDF700
:105A600067FC082206217748FCF75FFA0822072125
:105A70007448FCF75AFAC020059002208DF81800EF
:105A80008DF8190000208DF81A0001208DF81B00F8
:105A900005A96C48FCF7BEF901940020ADF8080098
:105AA000ADF80A00ADF80C00ADF810000C20ADF810
:105AB0000E0001A96248FDF7A2FC01216048FDF734
:105AC00026FD012240F225515D48FDF7D6FD472015
:105AD0008DF81C0002208DF81D0003208DF81E009B
